:020000040800F2
:1000000008980020DD010008FD100008FF1000081E
:1000100003110008071100080B1100080000000080
:100020000000000000000000000000004501000882
:100030000F110008000000008901000831110008BC
:10004000F7010008F7010008F7010008F7010008B0
:10005000F7010008F7010008F7010008F7010008A0
:10006000F7010008F7010008F7010008F701000890
:10007000F7010008F7010008F7010008F701000880
:10008000F7010008F7010008F7010008F701000870
:10009000F7010008F7010008F7010008F701000860
:1000A000F7010008F7010008F7010008F701000850
:1000B000F7010008F7010008F7010008F701000840
:1000C000F7010008F7010008F7010008F701000830
:1000D000F701000811110008F7010008F7010008F6
:1000E000F7010008F7010008F7010008F701000810
:1000F000F7010008F7010008F7010008F701000800
:10010000F7010008F7010008F7010008F7010008EF
:10011000F7010008F7010008F7010008F7010008DF
:10012000F7010008F7010008F7010008F7010008CF
:10013000DFF80CD004F034F8004800474310000802
:1001400008980020224B19680868B0E8F00F80F387
:100150000988BFF36F8F4FF0000080F311884EF0D5
:100160000D0E70470000000006480068006880F32C
:10017000088862B661B6BFF34F8FBFF36F8F00DFA1
:1001800000BF00BF08ED00E0EFF30980BFF36F8F01
:100190000F4B1A6820E9F00F106008B54FF05000BF
:1001A00080F31188BFF34F8FBFF36F8F02F071FEA2
:1001B0004FF0000080F31188BDE808401968086816
:1001C000B0E8F00F80F30988BFF36F8F704700BF6E
:1001D00054000020EFF30580704700000648804778
:1001E00006480047FEE7FEE7FEE7FEE7FEE7FEE71C
:1001F000FEE7FEE7FEE7FEE7DF0200083101000848
:100200000CB50020019000906C48006840F48030EC
:100210006A49086000BF6948006800F40030009037
:100220000198401C0190009818B90198B0F5A06F92
:10023000F1D16248006800F4003010B10120009054
:1002400001E0002000900098012843D15C4800683C
:1002500040F010005A4908600846006820F003008A
:1002600008600846006840F0020008605348406893
:10027000524948600846406848600846406840F473
:10028000806048600846406820F47C10486008465A
:10029000406840F4E81048600846006840F080700C
:1002A000086000BF4548006800F000700028F9D0E1
:1002B0004248406820F003004049486008464068D2
:1002C00040F00200486000BF3C48406800F00C006D
:1002D0000828F9D10CBD10B5FFF792FF10BD10B57D
:1002E0003648006840F0010034490860084640681C
:1002F000344908403149486008460068324908409E
:100300002E4908600846006820F4802008600846EE
:10031000406820F4FE0048604FF41F008860FFF73B
:10032000DAFF4FF000602949086010BD10B50021C8
:1003300000200022214B5B6803F00C0121B104294D
:1003400006D0082928D107E0214B224C236027E062
:100350001F4B204C236023E0184B5B6803F47010A4
:10036000164B5B6803F48032022303EB904022B902
:10037000194B4343174C23600DE0104B5B6803F4AB
:10038000003323B1144B4343124C236003E0104B62
:100390004343104C236003E00D4B0E4C236000BF21
:1003A00000BF064B5B68C3F303130C4CE15C094BC5
:1003B0001B68CB40074C236010BD000000100240BA
:1003C000002002400000FFF8FFFFF6FE08ED00E00D
:1003D00000127A000000002000093D000400002007
:1003E00031490143314A1160704770B50021002343
:1003F0000F22C47804B32D4C246804F4E064C4F5DF
:10040000E064210AC1F10403CA40447804FA03F10C
:100410008478144021430901254C0678A1550478BD
:1004200004F01F050124AC4005786D11AD0005F105
:10043000E025C5F8004109E0047804F01F05012417
:10044000AC401C4D0678761145F8264070BD1A4A1E
:100450000A400243154B1B1F1A60704739B1134AFB
:10046000121D12680243114B1B1D1A6006E00F4A51
:10047000121D126882430D4B1B1D1A607047042821
:1004800008D14FF0E021096941F004014FF0E0226A
:10049000116107E04FF0E021096921F004014FF0FC
:1004A000E0221161704700000000FA050CED00E049
:1004B00000E400E080E100E080FFFF1F10B504468B
:1004C000CC48844208D10121042000F02DFB0021FA
:1004D000042000F029FB46E0C748844208D10121EE
:1004E000082000F021FB0021082000F01DFB3AE06D
:1004F000C248844208D10121102000F015FB0021E0
:10050000102000F011FB2EE0BD48844208D10121EB
:10051000202000F009FB0021202000F005FB22E054
:10052000B848844208D10121402000F0FDFA0021A2
:10053000402000F0F9FA16E0B348844208D10121C6
:10054000802000F0F1FA0021802000F0EDFA0AE0AE
:10055000AE48844207D10121801500F0E5FA002160
:10056000A01500F0E1FA10BD10B50121084600F019
:10057000DBFA0021012000F0D7FA10BD2DE9F0418F
:10058000024600250026002000230024002791F8C1
:1005900003C00CF00F0591F803C00CF0100CBCF177
:1005A000000F03D091F802C04CEA050591F800C095
:1005B000BCF1000F31D0146800202BE04FF0010C8B
:1005C0000CFA00F3B1F800C00CEA03069E4220D1F9
:1005D00083004FF00F0C0CFA03F7BC4305FA03FC41
:1005E0004CEA040491F803C0BCF1280F06D14FF087
:1005F000010C0CFA00FCC2F814C00AE091F803C028
:10060000BCF1480F05D14FF0010C0CFA00FCC2F808
:1006100010C0401C0828D1D31460B1F800C0BCF150
:10062000FF0F34DD546800202EE000F1080C4FF07D
:10063000010808FA0CF3B1F800C00CEA03069E4268
:1006400021D183004FF00F0C0CFA03F7BC4305FADD
:1006500003FC4CEA040491F803C0BCF1280F05D157
:1006600000F1080C08FA0CF8C2F8148091F803C0E5
:10067000BCF1480F07D100F1080C4FF0010808FA4F
:100680000CF8C2F81080401C0828CED35460BDE896
:10069000F0814FF6FF710180022181700421C17049
:1006A00070470246002093680B400BB1012000E028
:1006B000002070470146886880B2704702460020DB
:1006C000D3680B400BB1012000E0002070470146C9
:1006D000C86880B2704701617047416170470AB1D4
:1006E000016100E041617047C16070474FF48032A2
:1006F0000A43826181618261826982697047024630
:100700000020434B18684FF68073184040EA0210EF
:1007100008433F4B186070473E49C8617047F0B5C9
:100720000A46002300240021002500F00046B6F10F
:10073000004F02D1364EF16901E0354E7168C0F3C9
:10074000034583B200F44016B6F5401F08D121F0EE
:1007500070612F4E766826F070662D4F7E6012E035
:1007600000F48016B6F5801F06D1032606FA05F4BC
:10077000A14341F0706106E0460D360103FA06F62A
:10078000B14341F0706122B1460D360103FA06F61D
:10079000314300F00046B6F1004F02D11C4EF1612A
:1007A00001E01B4E7160F0BD30B500228B071C0FBD
:1007B0000F2303FA04F2164B08338C1053F824303D
:1007C0009343134C08348D1044F8253023468C1085
:1007D00053F824308C07240F00FA04F423430C4C04
:1007E00008348D1044F8253030BD0A49DC310860EA
:1007F0007047000000080140000C0140001001405B
:100800000014014000180140001C0140002001407C
:100810000000014000002042DF48006840F0010075
:10082000DD49086008464068DC490840DA4948600C
:1008300008460068DA490840D74908600846006859
:1008400020F4802008600846406820F4FE004860DC
:100850004FF41F0088607047CF49096821F4803148
:10086000CD4A11601146096821F480211160B0F56C
:10087000803F03D0B0F5802F0ED106E0C64909684D
:1008800041F48031C44A116007E0C349096841F46A
:10089000A021C14A116000E000BF00BF704710B541
:1008A00001460022002300204A11012A02D1BA4C3D
:1008B000236806E0022A02D1B74C236A01E0B64C55
:1008C000636A01F01F02012494401C400CB1012016
:1008D00000E0002010BD38B5002000900024002565
:1008E00000BF3120FFF7DBFF05460098401C009059
:1008F0000098B0F5A06F01D0002DF2D03120FFF7A5
:10090000CEFF08B1012400E00024204638BD014696
:100910000020A14A106820F0F80040EAC1001060F1
:100920007047A04908607047024600209A4B5868FB
:1009300020F47C1042EA01031843974B586070473B
:1009400098490866704701460020934A506820F095
:1009500003000843506070478F48406800F00C0067
:100960007047014600208C4A506820F0F000084390
:100970005060704701460020874A506820F4E060CC
:1009800008435060704701460020834A506820F4B5
:10099000605040EAC1005060704729B17E4A527AE7
:1009A00002437D4B5A7204E07B4A527A82437A4B6F
:1009B0005A7270477B49D831086070470146002061
:1009C000754A506820F44040084350607047002149
:1009D000714A20321170704A82F82010012802D02A
:1009E00004280AD104E001216B4A2032117005E08D
:1009F0000521694A2032117000E000BF00BF704736
:100A00006949086070476449096A0143624A116292
:100A10007047654944390860704730B500210022AD
:100A2000002400235C4D6D6805F00C0121B1042900
:100A300005D0082923D105E05C4D056022E05B4D1F
:100A400005601FE0544D6D6805F47012524D6D68DD
:100A500005F48034022505EB92421CB9544D5543F0
:100A600005600BE04C4D6D6805F400351DB1504D2F
:100A70005543056002E04D4D5543056002E04B4D86
:100A8000056000BF00BF444D6D6805F0F001090925
:100A9000484D6B5C0568DD4045603F4D6D6805F471
:100AA000E061090A434D6B5C4568DD4085603A4D65
:100AB0006D6805F46051C90A3E4D6B5C4568DD40C8
:100AC000C560354D6D6805F44041890B3A4D6B5C4E
:100AD000C568B5FBF3F5056130BD29B12E4A5269F1
:100AE00002432D4B5A6104E02B4A526982432A4B40
:100AF0005A61704729B1284A92690243264B9A618C
:100B000004E0254A92698243234B9A61704729B1D8
:100B1000214AD2690243204BDA6104E01E4AD269BD
:100B200082431D4BDA61704729B11B4AD2680243E8
:100B3000194BDA6004E0184AD2688243164BDA6037
:100B4000704729B1144A12690243134B1A6104E039
:100B5000114A12698243104B1A6170471249403999
:100B6000086070470F49C86470470B49C8717047E7
:100B70000948406A40F08070074948627047014662
:100B80000020054A92680A400AB1012000E00020D6
:100B90007047014988727047001002400000FFF85A
:100BA000FFFFF6FE000042428004424200127A003B
:100BB00000093D00140000202400002010B5044668
:100BC000FB48844209D101218803FFF7ADFF0021D2
:100BD0004FF48040FFF7A8FF32E0F648844209D185
:100BE00001214804FFF7ADFF00214FF40030FFF76B
:100BF000A8FF25E0F048844209D101218804FFF7CD
:100C0000A0FF00214FF48020FFF79BFF18E0EB4886
:100C1000844209D10121C804FFF793FF00214FF45A
:100C20000020FFF78EFF0BE0E548844208D1012148
:100C30000805FFF786FF00214FF48010FFF781FFC2
:100C400010BD2DE9F04786B005460E460024A246A9
:100C500000BFA1460027B08900B100BF2F462C8AF3
:100C60004CF6FF700440F08804432C82AC894EF6A9
:100C7000F3100440B0883189084371890843044364
:100C8000AC81AC8A4FF6FF400440B0890443AC828B
:100C900001A8FFF7C2FEC648874202D1DDF810A0C6
:100CA00001E0DDF80CA0A88900F4004040B10AEB97
:100CB000CA0000EB0A1031684900B0FBF1F807E008
:100CC0000AEBCA0000EB0A1031688900B0FBF1F8AA
:100CD0006420B8FBF0F004012009642101FB1089B5
:100CE000A88900F4004040B1322000EBC900B0FBFD
:100CF000F1F000F00700044308E0322000EB091097
:100D00006421B0FBF1F000F00F0004432C8106B029
:100D1000BDE8F0874FF41651016000218180C18049
:100D200001810C21418100218181704710B502466B
:100D30000020108A4FF2FF0318400B884C88234391
:100D40008C882343CC8823431843108210BD002194
:100D5000018041808180C180704721B1828942F445
:100D60000052828104E082894DF6FF731A4082812D
:100D70007047F0B50346002400260025002040F609
:100D80006A17B94200D100BF1846C1F3421401F0FE
:100D90001F06012707FA06F5012C01D10C3004E0EB
:100DA000022C01D1103000E014301AB107682F4333
:100DB000076002E00768AF430760F0BD1AB1838A9D
:100DC0000B43838202E0838A8B4383827047028ACB
:100DD0004FF6F0731A400282028A0A430282704779
:100DE00082894FF2FF731A40828182890A4382818D
:100DF000704721B1828942F00202828104E0828937
:100E00004FF6FD731A4082817047028A4FF6DF73F6
:100E10001A400282028A0A430282704721B1028A82
:100E200042F48042028204E0028A4BF6FF731A40C9
:100E300002827047C1F308028280704701468888A9
:100E4000C0F308007047818941F00101818170473A
:100E5000028BD2B20283028B42EA012202837047E4
:100E6000028B02F47F420283028B0A4302837047A3
:100E700021B1828A42F02002828204E0828A4FF607
:100E8000DF731A408282704721B1828A42F01002D9
:100E9000828204E0828A4FF6EF731A4082827047A2
:100EA00021B1828A42F00802828204E0828A4FF6EF
:100EB000F7731A408282704721B1828942F400425E
:100EC000828103E08289C2F30E028281704721B1E0
:100ED000828A42F40062828204E0828A4FF2FF73C7
:100EE0001A4082827047828A4FF6FB731A408282D0
:100EF000828A0A438282704721B1828A42F00202CA
:100F0000828204E0828A4FF6FD731A408282704723
:100F100002460020B1F5007F00D100BF13880B40CE
:100F20000BB1012000E00020704701F40072B2F51F
:100F3000007F00D100BFCA430280704770B50246EF
:100F4000002400230025002040F66A16B14200D19B
:100F500000BFC1F3421501F01F03012606FA03F397
:100F6000012D02D19689334006E0022D02D1168A66
:100F7000334001E0968A33400C12012606FA04F44D
:100F80001688344013B10CB1012000E0002070BD80
:100F900010B50022002340F66A14A14200D100BF20
:100FA0000A1201249440A3B2DC43048010BD000067
:100FB000003801400044004000480040004C004020
:100FC0000050004010B54FF44070FFF709FA00F0F0
:100FD00087F900F0C6F810BD13E0042025494861E8
:100FE00025A003F0EFF84FF4FA7001F029FE042079
:100FF0002049086123A003F0E5F84FF4FA7001F0EE
:101000001FFEEAE71CB5012400F069FB204802211D
:1010100000230A02CDE900101EA1214801F08EFB39
:101020000446012C03D11FA003F0CCF802E025A058
:1010300003F0C8F82B48006801F0CEFB00F072FB0B
:101040001CBD1CB50124FFF7BDFF2648012100236C
:101050004A02CDE9001024A1274801F06FFB0446A5
:10106000012C02D102F097F802E04FF0FF301CBDD6
:1010700000BFFEE7001001406C6564206F6E0D0A32
:10108000000000006C6564206F66660D0A000000B9
:101090002C0000204C45445F5461736B000000003D
:1010A000D90F00084C45445F5461736B20E4BBBB0F
:1010B000E58AA1E5889BE5BBBAE68890E58A9F2191
:1010C0000A0000004C45445F5461736B20E4BBBBD5
:1010D000E58AA1E5889BE5BBBAE5A4B1E8B4A52102
:1010E0000A000000280000204170705461736B43B7
:1010F000726561746500000005100008704700BF4C
:10110000FEE700BFFEE700BFFEE700BFFEE7704757
:1011100010B540F225510848FFF710FF38B10648D6
:10112000FFF78CFEC4B221460348FFF783FE10BDD3
:1011300010B500F00FFB10BD0038014008B54FF4AA
:10114000A060FFF74DF925208DF8000001208DF8F3
:1011500001008DF802008DF803006846FFF745F99D
:1011600008BD00B585B001210420FFF7C3FC0121B3
:101170008803FFF7BFFC4FF40070ADF81000182093
:101180008DF8130003208DF8120004A95248FFF7D0
:10119000F5F94FF48060ADF8100004208DF81300CD
:1011A00004A94D48FFF7EAF94FF4E1300090002020
:1011B000ADF80400ADF80600ADF80800ADF80C007D
:1011C0000C20ADF80A0069464448FFF73AFDFFF7E6
:1011D000B5FF012240F225514048FFF7CAFD012129
:1011E0003E48FFF7BAFD05B000BD70B504460D4698
:1011F00029462046FFF71EFE00BF80212046FFF74C
:1012000087FE0028F9D070BD2DE9F04107460D4654
:101210001646002405E0295D3846FFF7E6FF601C0E
:10122000C4B2B442F7DB00BF40213846FFF770FE7E
:101230000028F9D0BDE8F08170B506460C460025BF
:1012400000BF615D3046FFF7D0FF6D1C605D002878
:10125000F7D100BF40213046FFF75AFE0028F9D0F1
:1012600070BD2DE9F04105460C46260AE7B231462D
:101270002846FFF7DFFD00BF80212846FFF748FE24
:101280000028F9D039462846FFF7D4FD00BF802159
:101290002846FFF73DFE0028F9D0BDE8F08170B583
:1012A00004460D46E1B20D48FFF7C4FD00BF8021A2
:1012B0000A48FFF72DFE0028F9D0204670BD10B572
:1012C000044600BF20210548FFF722FE0028F9D080
:1012D0000248FFF7B3FD10BD00080140003801408F
:1012E00008B501211020FFF705FC0420ADF800002F
:1012F00010208DF8030003208DF80200694609488C
:10130000FFF73CF90820ADF8000069460548FFF7F3
:1013100035F904210348FFF7DEF908210148FFF7FA
:10132000DAF908BD0010014010B50146924800E00E
:10133000006803688B42FBD30246436813448B4228
:1013400004D143684C682344436001460A464B6815
:1013500013440468A34211D1884C03682468A34253
:1013600008D04B680468646823444B6003681B68BA
:101370000B6005E0814B1B680B6001E003680B60AC
:10138000884200D0016010BD30B54FF410437C4856
:1013900000F007042CB1C01D20F00700784C041B9E
:1013A0001B1B0246744C22600024734D6C60D018E5
:1013B000083820F00700714C206000246F4D2D6824
:1013C0006C606E4D2D682C601146441A4C606B4C5D
:1013D00024680C606B4D4C682C606B4D4C682C6025
:1013E0004FF00044694D2C6030BD2DE9F0410446BA
:1013F0004FF0000801F0C3FB6048006808B9FFF730
:10140000C3FF62480068204000285FD1A4B10834BF
:1014100004F0070080B104F00700C0F108000444A4
:1014200004F0070008B9012000E0002020B9BF2225
:1014300057A161A002F0C6FE002C47D052480068B8
:10144000844243D84C4E3046056801E02E462D6854
:101450006868A04202D228680028F7D1474800688F
:10146000854233D0306800F1080828683060686829
:10147000001B102813D92F1907F0070008B9012005
:1014800000E0002020B9EC2241A14BA002F09AFE1E
:101490006868001B78606C603846FFF745FF3A4982
:1014A00068680968081A38490860084600683549BC
:1014B0000968884203D234480068324908603349D9
:1014C00068680968084368600020286001F0ACFA89
:1014D00008F0070008B9012000E0002028B94FF407
:1014E00096722BA134A002F06DFE4046BDE8F0815B
:1014F00070B506463546002E35D0083D2C462349AA
:1015000060680968084008B1012000E0002028B99F
:101510004FF4A0721EA128A002F054FE206808B962
:10152000012000E0002028B940F2411218A122A0B9
:1015300002F048FE154960680968084098B12068C3
:1015400088B91249606809688843606001F017FB38
:101550000D496068096808440B4908602046FFF798
:10156000E3FE01F061FA70BD074800687047054866
:1015700000687047704700003000002038000020ED
:10158000A8000020400000203C0000204400002073
:101590002E2E5C2E2E5C4672656552544F535C7045
:1015A0006F72745C4D656D4D616E675C68656170EE
:1015B0005F342E63000000004572726F723A25732B
:1015C0002C25640D0A00000084480068401C08B9FE
:1015D000012000E0002020B9F42281A18AA002F0BD
:1015E000F1FD00BF502080F31188BFF34F8FBFF390
:1015F0006F8F00BF00BFFEE7001F4FF080730360D6
:10160000001F21F001030360001F834B03601438A7
:10161000026020387047814800684FF47A71B0FB4F
:10162000F1F0401E4FF0E02148610720086170474B
:101630001CB57B48014609780191FF2102461170D3
:101640000146097800919DF8001001F05001754A9B
:1016500011700721744A116009E073490968491E35
:10166000714A11609DF800104906090E00919DF81D
:10167000001001F080018029EFD06B490968090250
:10168000694A11601146098801F4E0611160644AF9
:10169000019911706548006840F470006349086062
:1016A0000846006840F070400860FFF7B4FF002073
:1016B0004A490860FEF758FD00201CBD10B5474898
:1016C0000068B0F57A7F01D1012000E0002028B940
:1016D0004FF4B57242A14CA002F074FD10BD10B5DC
:1016E00000BF502080F31188BFF34F8FBFF36F8F7F
:1016F00000BF3A480068401C384908600846006846
:1017000001280ED149481C380068C0B208B9012030
:1017100000E0002028B94FF4BD7231A13AA002F0D8
:1017200051FD10BD10B52D48006828B940F2811256
:101730002BA135A002F046FD28480068401E27492D
:1017400008600846006820B9002080F3118800BFB7
:1017500000BF10BD10B500BF502080F31188BFF34B
:101760004F8FBFF36F8F00BF01F096F820B14FF09D
:1017700080502E491C39086000BF002080F311887A
:1017800000BF10BD70B5FEF725FD0546102D11D325
:1017900005F1E02090F8F04322480078844201DB14
:1017A000012000E0002028B94FF42A720CA116A0F5
:1017B00002F008FD1D481438006800F4E0601A4982
:1017C0000968884201D8012000E0002028B94FF4C0
:1017D0002E7203A10CA002F0F5FC70BD48000020A1
:1017E0002E2E5C2E2E5C4672656552544F535C70F3
:1017F0006F72745C525644535C41524D5F434D339B
:101800005C706F72742E63004572726F723A25734A
:101810002C25640D0A000000C915000800000020F6
:1018200000E400E04C0000205000002020ED00E02B
:1018300000F1080141604FF0FF31816000F10801C3
:10184000C1600161002101607047002101617047A2
:1018500042684A6093688B60936859609160086140
:1018600003685B1C0360704710B502460B685C1C84
:101870000CB9106907E002F1080000E04068446814
:1018800024689C42FAD944684C604C68A160886026
:1018900041600A611468641C146010BD01460A6945
:1018A000D1E901309860D1E901035860506888425D
:1018B00001D188685060002008611068401E1060E7
:1018C0001068704770B505460E462C462CB940F29C
:1018D0001B12F8A1FEA002F075FCFFF700FFD4E98F
:1018E0000F12206801FB020060600020A0632068E6
:1018F000A060E06B401E226C216800FB0210E060DB
:10190000FF2084F8440084F845009EB9206908B996
:10191000012000E00020A8B904F1100001F028FD2A
:1019200080B14FF08050EE490860BFF34F8FBFF396
:101930006F8F07E004F11000FFF77AFF04F1240035
:10194000FFF776FFFFF7EEFE012070BD2DE9F041B5
:1019500006460D4617469846069C0DB9246000E0E1
:101960002760E663256401212046FFF7ABFF0020D6
:10197000A064BDE8F0812DE9F84305460E46904687
:101980000DB1012000E0002028B94FF4C472C9A1B4
:10199000CFA002F017FC0EB9002701E005FB06F707
:1019A00007F14C00FFF721FD044644B104F14C0956
:1019B00043464A46314628460094FFF7C7FF204673
:1019C000BDE8F8832DE9F04104460F4615464FF077
:1019D0000008A66B206C40B9206860BB606801F00D
:1019E00000FE80460020606025E07DB93946226C0B
:1019F000A06802F0ADFB216CA0680844A060D4E9A7
:101A00000110884217D32068A06014E03946226C88
:101A1000E06802F09DFB216CE068401AE0602168FC
:101A2000E068884203D2216C6068401AE060022DB1
:101A300001D106B1761E701CA0634046BDE8F0815E
:101A40002DE9F3410D460098846C00272CB940F62F
:101A5000CE1298A19EA002F0B5FBA06BE16B88426C
:101A600001D2012000E0002028B940F6CF1291A158
:101A700097A002F0A7FBA06BE16B88421BD294F900
:101A800045602A4669462046FFF79CFF0746701CC2
:101A900060B9606A08B9012000E0002050B904F183
:101AA000240001F065FC28B1012703E0701C40B25E
:101AB00084F8450000BF3846BDE8FC8170B5044697
:101AC000FFF70DFE94F945501AE0A06C38B10021E3
:101AD0002046FFF7B5FF88B101F01EFD0EE0606AF9
:101AE00008B9012000E0002038B904F1240001F019
:101AF0003FFC18B101F010FD00E003E0681E45B2A4
:101B0000002DE2DC00BFFF2084F84500FFF70AFE4D
:101B1000FFF7E5FD94F9445010E0206908B9012071
:101B200000E0002048B904F1100001F021FC08B1E8
:101B300001F0F2FC681E45B200E001E0002DECDC93
:101B400000BFFF2084F84400FFF7ECFD70BD70B5C6
:101B50000546FFF7C4FDA86BE96B884201D101245B
:101B600000E00024FFF7DEFD204670BD2DE9FF43B5
:101B700083B0064688461D464FF0000934462CB90E
:101B800040F2D9224BA152A002F01CFBB8F1000F89
:101B900001D1206C08B9012000E0002028B940F2F2
:101BA000DA2244A14AA002F00DFB022D02D1E06B23
:101BB000012801D1012000E0002028B940F2DB22F9
:101BC0003CA143A002F0FEFA01F0ADFC08B9059873
:101BD00008B9012000E0002028B940F2DE2235A13A
:101BE0003BA002F0EFFA00BFFFF779FDA06BE16BBD
:101BF000884201D3022D38D12A4641462046FFF7BC
:101C0000E1FE0746A06C68B129462046FFF718FFA1
:101C100028B34FF0805032490860BFF34F8FBFF3B5
:101C20006F8F1CE0606A08B9012000E0002068B9ED
:101C300004F1240001F09CFB88B14FF0805028494A
:101C40000860BFF34F8FBFF36F8F08E03FB14FF0D5
:101C5000805023490860BFF34F8FBFF36F8FFFF7AA
:101C600061FD012007B0BDE8F083059818B9FFF7C2
:101C700059FD0020F6E7B9F1000F04D101A801F0E9
:101C8000FBFB4FF00109FFF74DFD00F078FFFFF778
:101C900026FD94F94400401C10B9002084F844004B
:101CA00094F94500401C10B9002084F84500FFF766
:101CB00039FD17E02E2E5C2E2E5C4672656552545F
:101CC0004F535C7372635C71756575652E630000BC
:101CD0004572726F723A25732C25640D0A0000005C
:101CE00004ED00E005A901A801F0D8FBF8B92046F1
:101CF000FFF72DFFA8B104F11000059901F0DAFA01
:101D00002046FFF7DBFE00F08FFE00287FF46CAF6B
:101D10004FF08050FA490860BFF34F8FBFF36F8FC9
:101D200062E72046FFF7CAFE00F07EFE5CE7204631
:101D3000FFF7C4FE00F078FE002093E710B50446DC
:101D40004CB1002060602060E06000231A46194614
:101D50002046FFF70BFF10BD2DE9F0410446012698
:101D60000027224600210120FFF705FE05462846F0
:101D7000FFF7E4FF2846BDE8F08170B5064634461B
:101D80003CB940F24122AFF2D401AFF2BC0002F004
:101D900019FA01F0C5FB616888420CD1E068401E69
:101DA000E060E06828B900231A4619462046FFF78C
:101DB000DDFE012500E00025284670BD70B5054612
:101DC000FFF78DFCA86B08B9012400E00024FFF7A1
:101DD000A9FC204670BD70B504460D46206C70B15C
:101DE000216CE0680844E0606168E068884201D3E3
:101DF0002068E0602846226CE16802F0A9F970BD15
:101E00002DE9FF4782B005460E461F464FF0000AF7
:101E10002C463CB940F2DC42AFF26811AFF25010F0
:101E200002F0D0F90EB9206C08B9012000E00020C2
:101E300038B940F2DD42AFF28411AFF26C1002F01B
:101E4000C1F901F070FB08B9049808B9012000E05D
:101E5000002038B94FF49C62AFF2A811AFF2901095
:101E600002F0B0F900BFFFF73AFCD4F83890B9F1AE
:101E7000000F3DD0D4F80C8031462046FFF7ABFF71
:101E8000DFB9A9F10100A063206810B901F020FCBE
:101E90006060206908B9012000E0002010BB04F157
:101EA000100001F065FAE8B14FF0805094490860E5
:101EB000BFF34F8FBFF36F8F14E0C4F80C80606ADC
:101EC00008B9012000E0002060B904F1240001F00D
:101ED0004FFA38B14FF0805089490860BFF34F8FF7
:101EE000BFF36F8FFFF71EFC012006B0BDE8F0873F
:101EF000049818B9FFF716FC0020F6E7BAF1000FB6
:101F000004D1684601F0B8FA4FF0010AFFF70AFC65
:101F100000F035FEFFF7E3FB94F94400401C10B9D4
:101F2000002084F8440094F94500401C10B90020BA
:101F300084F84500FFF7F6FB04A9684601F0AEFA05
:101F400040BB2046FFF73AFFF0B1206830B9FFF7F9
:101F5000C6FB606801F0F3FAFFF7E4FB04F124002C
:101F6000049901F0A7F92046FFF7A8FD00F05CFDF9
:101F700000287FF478AF4FF0805061490860BFF3CC
:101F80004F8FBFF36F8F6EE72046FFF797FD00F08E
:101F90004BFD68E72046FFF791FD00F045FD204628
:101FA000FFF70CFF0028EED000209EE72DE9F0415E
:101FB00006460F4634463CB94FF41E72AFF20C3160
:101FC000AFF2F42002F0FEF801F0AAFA616888424C
:101FD00004D1E068401CE06001250AE000233A4695
:101FE00019462046FFF70CFF054615B1E068401C76
:101FF000E0602846BDE8F08170B505460E460DB19B
:10200000012000E0002038B940F2BD22AFF25C317F
:10201000AFF2443002F0D6F8AE4201D8012000E021
:10202000002038B940F2BE22AFF27831AFF2603012
:1020300002F0C8F8022200212846FFF79CFC044663
:1020400004B1A663204670BD2DE9F05F80468A4644
:1020500015461E4644463CB940F29F32AFF2AC31C1
:10206000AFF2943002F0AEF8BAF1000F01D1206C5B
:1020700008B9012000E0002038B94FF46872AFF2CF
:10208000CC31AFF2B43002F09DF8022E02D1E06BF9
:10209000012801D1012000E0002038B940F2A1322E
:1020A000AFF2F031AFF2D83002F08CF8FFF76AFBF4
:1020B00000BF5021EFF3118081F31188BFF34F8FE0
:1020C000BFF36F8F00BF0746A06BE16B884201D35F
:1020D000022E2ED194F945B0324651462046FFF7E4
:1020E00071FC0BF10100E0B9A06C58B131462046FB
:1020F000FFF7A6FCD0B1CDB10120286016E00000AA
:1021000004ED00E0606A08B9012000E0002068B931
:1021100004F1240001F02CF940B13DB10120286008
:1021200004E00BF1010040B284F845004FF00109D2
:1021300001E04FF0000900BF87F3118800BF484657
:10214000BDE8F09F2DE9F04707460D463C463CB9F7
:1021500040F23C42AFF2A441AFF28C4002F032F8C0
:10216000206C08B9012000E0002038B94FF48862E3
:10217000AFF2C041AFF2A84002F024F8206808B9DD
:10218000606808B9012000E0002038B940F24542FB
:10219000AFF2E041AFF2C84002F014F8FFF7F2FAF4
:1021A00000BF5021EFF3118081F31188BFF34F8FEF
:1021B000BFF36F8F00BF0646D4F83890E06B4845F8
:1021C00029D994F945A009F10100A0630AF10100A1
:1021D000C8B9A06C40B100212046FFF731FCB8B16E
:1021E000B5B10120286013E0606A08B9012000E061
:1021F000002068B904F1240001F0BAF840B13DB103
:102200000120286004E00AF1010040B284F8450092
:102210004FF0010801E04FF0000800BF86F311887D
:1022200000BF4046BDE8F0872DE9F05F06468946CD
:10223000174634463CB94FF4B462AFF28851AFF25E
:10224000705001F0BFFFB9F1000F01D1206C08B947
:10225000012000E0002038B940F2A152AFF2AC51A9
:10226000AFF2945001F0AEFFFFF78CFA00BF50219F
:10227000EFF3118081F31188BFF34F8FBFF36F8F9E
:1022800000BF0546D4F838A0BAF1000F22D094F967
:1022900044B049462046FFF79EFDAAF10100A06325
:1022A0000BF1010070B9206908B9012000E000209D
:1022B00068B904F1100001F05BF840B13FB10120B2
:1022C000386004E00BF1010040B284F844004FF0A4
:1022D000010801E04FF0000800BF85F3118800BF3E
:1022E0004046BDE8F09F2DE9F04706468846344653
:1022F0003CB940F2FC52AFF24461AFF22C6001F005
:1023000061FFB8F1000F01D1206C08B9012000E095
:10231000002038B940F2FD52AFF26861AFF2506070
:1023200001F050FF206C08B1012000E0002038B916
:1023300040F2FE52AFF28461AFF26C6001F042FFF6
:10234000FFF720FA00BF5021EFF3118081F31188CD
:10235000BFF34F8FBFF36F8F00BF0546A06B48B12F
:10236000D4F80C9041462046FFF735FDC4F80C9098
:10237000012700E0002700BF85F3118800BF384621
:10238000BDE8F08770B504463CB940F22F62AFF269
:10239000DC61AFF2C46001F015FFFFF7A0F9A56B97
:1023A000FFF7C0F9284670BD70B5044625463DB913
:1023B00040F24162AFF20471AFF2EC6001F002FF53
:1023C000FFF78DF9D5E90E10461AFFF7ABF9304645
:1023D00070BD70B504463CB940F25162AFF22C7149
:1023E000AFF2147001F0EEFEA56B284670BD0146F9
:1023F00000200EE0714A02EBC00252688A4207D107
:1024000000226E4B43F8302003EBC0035A6002E019
:10241000401C0A28EED300BF704770B5044625461D
:102420003DB940F25D62AFF27471AFF25C7001F0E1
:10243000C9FE2846FFF7DBFF2846FFF759F870BDB5
:1024400070B505463DB940F29372AFF29871AFF2A4
:10245000807001F0B7FEA86B08B9012400E00024E9
:10246000204670BD70B504463CB940F2BA72AFF276
:10247000BC71AFF2A47001F0A5FEA06BE16B8842C5
:1024800001D1012500E00025284670BD024600204C
:102490000BE04A4B53F8303033B9484B43F8301017
:1024A00003EBC0035A6002E0401C0A28F1D300BFCE
:1024B00070470246002000210AE0404B03EBC103B5
:1024C0005B68934203D13D4B53F8310002E0491C55
:1024D0000A29F2D300BF70472DE9F04105460E46A8
:1024E00017462C46FFF7FBF894F94400401C10B93E
:1024F000002084F8440094F94500401C10B90020E5
:1025000084F84500FFF70EF9A06B28B93A4631462A
:1025100004F1240000F011FF2046FFF7CFFABDE8D8
:10252000F08170B50446002204212046FFF723FA0B
:102530000546284670BD70B504460E46FFF7CFF835
:10254000A06C08B1002505E0A06B08B1002501E0F2
:10255000A6640125FFF7E6F8284670BD2DE9F04195
:1025600005460F462E46B06CB84201D000240AE062
:10257000B06B08B1002406E0FFF7B1F80020B064AA
:10258000FFF7D0F801242046BDE8F08138B50546B4
:102590000C46002000900023224669462846FFF79B
:1025A0002FFC009838BD38B504460020009000226A
:1025B00069462046FFF738FE009838BDA8900020F5
:1025C00010B5002407E004EB8401F74A02EB810018
:1025D000FFF72EF9641C202CF5D3F448FFF728F9F7
:1025E000F348FFF725F9F348FFF722F9F248FFF720
:1025F0001FF9F248FFF71CF9EC48F1490860EC4874
:10260000F049086010BD10B50446FFF768F8EE48C1
:102610000068401CEC490860EC48006840B9EB4891
:1026200004600846006801280DD1FFF7C9FF0AE0E1
:10263000E748006838B9E5480068C06AE16A88423E
:1026400001D8E2480460E3480068401CE1490860A2
:1026500094F82C1001208840DF4909680843DE49BE
:102660000860E16A01EB8101CF4A02EB8100211D84
:10267000FFF7EEF8FFF756F8D548006868B1D34881
:102680000068C06AE16A884207D24FF08050D3499F
:102690000860BFF34F8FBFF36F8F10BD2DE9FF5F51
:1026A00081460F469246DDE90E6B109CAAF10100AF
:1026B000216B01EB800828F0070808F0070008B933
:1026C000012000E0002028B940F22B32C4A1CBA0A9
:1026D00001F078FD002507E0795D04F134004155F3
:1026E000785D00B902E06D1C102DF5D300BF00210C
:1026F00043200155202E00D31F26E6626664002089
:10270000A064201DFFF7A1F804F11800FFF79DF861
:102710002461C6F12000A06164620020E06484F8B6
:10272000500049464046039AFEF766FF2060BBF121
:10273000000F01D0CBF80040BDE8FF9F2DE9FF4F0F
:1027400085B0804689461746DDE912ABB800FEF732
:102750004CFE064656B15420FEF747FE04460CB127
:10276000266304E03046FEF7C3FE00E000247CB19F
:102770000020CDE900ABCDE902403A46494640464B
:10278000089BFFF78BFF2046FFF73DFF012501E087
:102790004FF0FF35284609B0BDE8F08F8849096839
:1027A000096809B9012100E0002121B14FF0FF3192
:1027B000964A116006E082490968C968C868934A68
:1027C00041681160704710B50446206BFEF790FE1B
:1027D0002046FEF78DFE10BD70B50546FEF77FFF63
:1027E00015B97A48006800E028460446201DFFF726
:1027F00055F878B9E06A00EB80006B4951F8200089
:1028000040B994F82C10012088407349096881432D
:1028100071480160A06A18B104F11800FFF73EF892
:102820006C480068401C6B49086068480068844236
:1028300009D1211D6048FFF70BF875480068401C5E
:102840007349086009E060480068401E5E490860FE
:102850002046FFF7B8FFFFF7A1FFFEF763FF5C48D4
:102860000068C0B159480068844214D169480068C2
:1028700008B9012000E0002028B940F2654258A1C3
:102880005EA001F09FFC4FF0805054490860BFF3F8
:102890004F8FBFF36F8F70BD2DE9F0414FF00008EF
:1028A0005C480068002872D15B480068451C5A48A3
:1028B0000560EDB942480068006808B9012000E0F1
:1028C000002028B940F6D91245A14CA001F07AFCAD
:1028D0003B4807683B480068394908603948076049
:1028E0004E480068401C4D490860FFF757FF00BF85
:1028F0004648006885423CD300BF31480068006804
:1029000008B9012000E0002020B14FF0FF303F491E
:1029100008602DE02A480068C068C4686668B5424F
:1029200002D23A48066023E0201DFEF7B7FFA06AF6
:1029300018B104F11800FEF7B1FF94F82C10012033
:10294000884025490968084323490860E16A01EB8A
:102950008101154A02EB8100211DFEF779FF1B4919
:10296000E06A0968C96A8842C7D34FF00108C4E722
:1029700000BF16480068C06A00EB80000A4951F8A1
:102980002000012801D94FF0010805E0FFE72448A5
:102990000068401C224908602248006808B14FF0D6
:1029A00001084046BDE8F081F890002078930020AF
:1029B0008C930020A0930020B4930020C8930020A3
:1029C000580000205C00002064000020540000201B
:1029D00070000020800000206C00002004ED00E06A
:1029E0002E2E5C2E2E5C4672656552544F535C73DE
:1029F00072635C7461736B732E6300004572726F57
:102A0000723A25732C25640D0A0000008400002012
:102A1000600000208C000020680000207C00002066
:102A2000740000207800002070B500240026FE48C5
:102A3000006838B94FF4FD62AFF25C01AFF24400B8
:102A400001F0C0FBFEF74BFEF7480068401EF64958
:102A500008600846006800284FD1F4480068002844
:102A60004BD024E0F248C068C46804F11800FEF7B7
:102A700015FF201DFEF712FF94F82C10012088404E
:102A8000EC4909680843EB490860E16A01EB810100
:102A9000E94A02EB8100211DFEF7DAFEE749E06A10
:102AA0000968C96A884202D30120E5490860E04804
:102AB000006808B9012000E000200028D2D00CB145
:102AC000FFF76CFEDF48056865B100BFFFF7E4FE65
:102AD00010B10120DA4908606D1E002DF6D10020EA
:102AE000D8490860D648006838B101263007D64971
:102AF0000860BFF34F8FBFF36F8FFEF713FE3046B2
:102B000070BD2DE9F04105460E46D0480768CB4818
:102B10000068001DFEF7C2FE50B9C848006890F872
:102B20002C1001208840C34909688143C1480160D5
:102B3000681C38B936B1C1480168091DC448FEF7A0
:102B400087FE1AE07C19BD4800684460BC4207D289
:102B5000BA480168091DBF480068FEF785FE0CE011
:102B6000B6480168091DBC480068FEF77DFEBB48F9
:102B70000068844201D2B9480460BDE8F081AA48E7
:102B80000068401CA849086070472DE9F0470446DA
:102B90000F464FF000093CB940F27942AFF2C01144
:102BA000AFF2A81001F00EFB0FB1012000E00020F1
:102BB00038B940F27A42AFF2D811AFF2C01001F04A
:102BC00001FB9948006808B9012000E0002038B9ED
:102BD00040F27B42AFF2F811AFF2E01001F0F2FAEE
:102BE000FFF7CDFF994806682068C5192068B042F4
:102BF00007D92068A8420BD9B54209D94FF001097D
:102C000006E02068A84201D8B54201D94FF0010979
:102C10002560B9F1000F03D0A81B0021FFF771FF59
:102C2000FFF702FF8046B8F1000F07D14FF0805048
:102C300085490860BFF34F8FBFF36F8FBDE8F08702
:102C400070B504460025BCB17748006808B901207A
:102C500000E0002038B940F2CF42AFF27C21AFF261
:102C6000642001F0AFFAFFF78AFF00212046FFF74A
:102C700048FFFFF7D9FE05463DB94FF08050724935
:102C80000860BFF34F8FBFF36F8F70BD2DE9F04128
:102C900007463E463EB940F2FB42AFF2BC21AFF2DE
:102CA000A42001F08FFA65480068864201D1002413
:102CB0001EE0FEF714FD7569FEF734FD66480068F6
:102CC000854203D063480068854201D102240FE0A9
:102CD0005F48854205D1B06A08B9032408E00224A0
:102CE00006E05F48854200D00DB9042400E00124CD
:102CF0002046BDE8F08170B50446FEF7F0FC14B93B
:102D00004E48006800E020460646F56AFEF70AFDD8
:102D1000284670BD2DE9F0410546FEF733FD00BFA2
:102D20005021EFF3118081F31188BFF34F8FBFF370
:102D30006F8F00BF044615B94048006800E0284680
:102D40000746FE6A00BF84F3118800BF3046BDE825
:102D5000F0812DE9F04780460D464FF00009202D07
:102D600001D2012000E0002038B94FF4B062AFF288
:102D70009031AFF2783001F025FA202D00D31F25D5
:102D8000FEF7ADFCB8F1000F02D12C48006800E05E
:102D900040460446666CAE4277D0B5420BD9274810
:102DA000006884420DD025480068C06AA84208D84F
:102DB0004FF0010905E021480068844201D14FF03D
:102DC0000109E76AE16A606C884200D1E5626564E6
:102DD000A06900F0004010B9C5F12000A06107EB28
:102DE0008701154A02EB81016069884201D1012007
:102DF00000E00020B0B3201DFEF750FD30B90120E7
:102E0000B8400C49096881430A48016094F82C10C5
:102E10000120884007490968084306490860E16ABB
:102E200001EB8101044A1FE08C00002064000020B7
:102E3000A09300206C000020F89000205400002097
:102E4000780000207400002004ED00E068000020FD
:102E5000C89300205C00002058000020840000205F
:102E6000B493002005E010E002EB8100211DFEF785
:102E7000EFFCB9F1000F07D04FF08050FB4908601C
:102E8000BFF34F8FBFF36F8F00BFFEF74BFCBDE862
:102E9000F08710B5F648006818B10120F5490860C0
:102EA0002FE00020F3490860F3480068B0FA80F092
:102EB000C0F11F0404EB8400F04951F8200008B170
:102EC000012000E0002038B940F6F622AFF2F041D0
:102ED000AFF2D84001F076F904EB8401E74A02EB47
:102EE000810041684968416000F1080142688A42F6
:102EF00002D14168496841604168C968E04A11608F
:102F000000BF10BD70B50546FEF7E9FB15B9DC48FA
:102F1000006800E028460446201DFEF7BFFC78B993
:102F2000E06A00EB8000D54951F8200040B994F8E0
:102F30002C1001208840D04909688143CE480160A7
:102F4000A06A18B104F11800FEF7A8FC211DCD48B5
:102F5000FEF77EFCFEF7E6FBCB48006828B1FEF7E3
:102F6000BEFBFFF71BFCFEF7DDFBC5480068844293
:102F700026D1C5480068B8B1BD48006808B901202D
:102F800000E0002038B940F25762AFF2AC51AFF226
:102F9000945001F017F94FF08050B4490860BFF326
:102FA0004F8FBFF36F8F0BE0B6480068B7490968D1
:102FB000884203D10020B249086001E0FFF769FFB1
:102FC00070BD70B5054600262C463DB940F28162C1
:102FD000AFF2F451AFF2DC5001F0F4F8A9496069A6
:102FE000884201D1012000E0002070B1A849A06A08
:102FF000884201D1012000E0002030B9A06A08B960
:10300000012000E0002000B10126304670BD70B5FF
:1030100005462C463DB940F2AB62AFF23C61AFF2DF
:10302000246001F0CFF874B39548006884422AD038
:10303000FEF755FB2046FFF7C4FF10B3201DFEF737
:103040002DFC94F82C10012088408B490968084316
:1030500089490860E16A01EB8101884A02EB81003D
:10306000211DFEF7F5FB8649E06A0968C96A8842B6
:1030700007D34FF080507D490860BFF34F8FBFF3F7
:103080006F8FFEF74FFB70BD2DE9F041064600271C
:1030900034463EB940F2E262AFF2BC61AFF2A460E6
:1030A00001F090F8FEF76EFB00BF5021EFF31180A6
:1030B00081F31188BFF34F8FBFF36F8F00BF0546B9
:1030C0002046FFF77EFF20B369480068E0B96C49ED
:1030D000E06A0968C96A884200D30127201DFEF70B
:1030E000DDFB94F82C1001208840634909680843EF
:1030F00061490860E16A01EB8101604A02EB8100ED
:10310000211DFEF7A5FB04E004F118016048FEF75D
:103110009FFB00BF85F3118800BF3846BDE8F081F2
:1031200070B523E0FFF72BFD5A48006808B901206D
:1031300000E000200546FFF777FCBDB9FEF7CFFAA7
:103140005448C068C468201DFEF7A8FB4F480068BB
:10315000401E4E49086050480068401E4E490860B5
:10316000FEF7E0FA2046FFF72EFB00BF4A48006852
:103170000028D7D170BD00BFFFF7D2FF3F480068DD
:103180000128F9D94FF0805038490860BFF34F8FBC
:10319000BFF36F8FF0E71CB5404800210B4680223B
:1031A000CDE900103EA14048FFF7C8FA0446012CC3
:1031B00002D100F087FE0446012C15D100BF50203B
:1031C00080F31188BFF34F8FBFF36F8F00BF4FF0B5
:1031D000FF303649086001202B490860002034493F
:1031E0000860FEF725FA0DE0601C08B1012000E040
:1031F000002038B940F28472AFF61C01AFF604002B
:1032000000F0E0FF1CBD10B500BF502080F3118816
:10321000BFF34F8FBFF36F8F00BF00201A490860C4
:10322000FEF74CFA10BD22490868704770B5FEF7EA
:10323000A9FA00251E480468204670BD134800689E
:10324000704770B5044614B90D48006800E0204688
:1032500005463DB940F68C02AFF67C01AFF664003E
:1032600000F0B0FF05F1340070BD000004ED00E097
:103270008C000020780000206C000020F8900020D6
:1032800054000020C893002070000020640000203B
:10329000A0930020B493002060000020880000204C
:1032A00049444C45000000007731000884000020AC
:1032B0006800002070B504460D463CB940F6063261
:1032C000AFF6E401AFF6CC0000F07CFFF7480168F0
:1032D00018312046FEF7C8FA01212846FFF711FCF5
:1032E00070BD70B504460D4616463CB940F617321F
:1032F000AFF61411AFF6FC0000F064FFEC48006874
:1033000008B1012000E0002038B940F61B32AFF6CA
:103310003011AFF6181000F055FF45F00040E349BA
:1033200009688861E148016818312046FEF790FA83
:1033300001213046FFF7E5FB70BD70B505460E462E
:1033400014463DB940F63132AFF66C11AFF6541069
:1033500000F038FFD548016818312846FEF778FAA2
:103360000CB14FF0FF3621463046FFF7CAFB70BD67
:1033700070B50646F068C4683CB940F66132AFF6F5
:10338000A011AFF6881000F01DFF04F11800FEF741
:1033900085FAC7480068A8B9201DFEF77FFA94F89F
:1033A0002C1001208840C34909680843C1490860BE
:1033B000E16A01EB8101C04A02EB8100211DFEF7A9
:1033C00047FA04E004F11801BC48FEF741FAB74996
:1033D000E06A0968C96A884204D901250120B84910
:1033E000086000E00025284670BD2DE9F041054643
:1033F0000F46AF48006808B1012000E0002038B94E
:1034000040F69932AFF62821AFF6102000F0DAFE30
:1034100047F000402860EC683CB940F6A132AFF6B6
:103420004021AFF6282000F0CDFE2846FEF736FA00
:10343000201DFEF733FA94F82C10012088409D4996
:10344000096808439B490860E16A01EB81019A4AD7
:1034500002EB8100211DFEF7FBF99449E06A09683F
:10346000C96A884204D9012601209549086000E014
:1034700000263046BDE8F08110B504463CB940F660
:10348000C132AFF6A421AFF68C2000F09BFE8D4830
:10349000006820608C480068606010BD2DE9F04134
:1034A00004460D463CB940F6CB32AFF6CC21AFF620
:1034B000B42000F087FE3DB940F6CC32AFF6E021F3
:1034C000AFF6C82000F07EFEFEF709F97E480768D7
:1034D0002868401C08B9002619E07A492068096864
:1034E000884204D06068B84201D801260FE06068C5
:1034F000381A2968884209D228686168791A401AFE
:1035000028602046FFF7B8FF002600E00126FEF7FE
:1035100009F93046BDE8F08101206949086070472B
:103520006249086870476949096809B9012005E0DE
:103530005F49096809B9022000E00020704770B5B2
:1035400005462C46002D4BD05849E06A0968C96AE7
:10355000884245D2A06900F0004028B9534800686D
:10356000C06AC0F12000A061E16A01EB8101524A0A
:1035700002EB81016069884201D1012000E0002056
:1035800050B3201DFEF78AF978B9E06A00EB80009D
:10359000494951F8200040B994F82C100120884086
:1035A0004449096881434348016040480068C06A53
:1035B000E06294F82C10012088403E4909680843D5
:1035C0003C490860E16A01EB81013B4A02EB810062
:1035D000211DFEF73DF903E034480068C06AE0624F
:1035E00070BD70B505462C460026002D4FD02F48E3
:1035F0000068844201D1012000E0002038B940F683
:10360000C762AFF62441AFF60C4000F0DBFDA06CC2
:1036100038B940F6C962AFF63841AFF6204000F045
:10362000D1FDA06C401EA064616CE06A88422ED07F
:10363000A06C60BB201DFEF731F978B9E06A00EBA1
:1036400080001D4951F8200040B994F82C10012049
:10365000884018490968814316480160606CE0623F
:10366000E06AC0F12000A06194F82C10012088408D
:103670001049096808430F490860E16A01EB8101BC
:103680000D4A02EB8100211DFEF7E2F801263046CB
:1036900070BD06490968886904490968C96AC1F1A9
:1036A0002001024A12689161704700005400002016
:1036B0008C0000206C000020F8900020A0930020D7
:1036C000780000207C0000206800002070000020AE
:1036D000F948006830B1F849096801F14800896C7F
:1036E000491C0160F4480068704770B506460D46F5
:1036F000FDF7F5FFF0480068C06C88B90120EE497D
:10370000096881F850005DB101212846FFF7F9F9F9
:103710004FF08050E9490860BFF34F8FBFF36F8FC0
:10372000FEF700F8FDF7DBFFE3480068C46C4CB11E
:1037300026B10020E0490968C86403E0601EDE4944
:103740000968C8640020DC49096881F85000FDF769
:10375000E9FF204670BD2DE9F04107468846144632
:103760001D46FDF7BCFFD448006890F850000228C1
:1037700018D0D149096801F14C00C96CB943016006
:103780000120CD49096881F850005DB1012128462A
:10379000FFF7B7F94FF08050C8490860BFF34F8F6B
:1037A000BFF36F8FFDF7BEFFFDF799FF1CB1C24855
:1037B0000068C06C2060C048006890F85000012884
:1037C00001D1002608E0BC49096801F14C00C96C30
:1037D00021EA0801016001260020B749096881F843
:1037E0005000FDF79FFF3046BDE8F0812DE9F0471E
:1037F00006460D46174698464FF0010A3EB941F27B
:10380000FD02AFF62461AFF60C6000F0DBFC34463D
:10381000FDF765FFB8F1000F02D0E06CC8F80000BA
:1038200094F85090022084F85000052F17D2DFE85A
:1038300007F01503070B0D00E06C2843E0640EE071
:10384000E06C401CE0640AE0E56408E0B9F1020FB6
:1038500001D0E56401E04FF0000A00E000BF00BFC6
:10386000B9F1010F30D1201DFEF718F894F82C1093
:103870000120884092490968084391490860E16A3B
:1038800001EB81018F4A02EB8100211DFDF7E0FF72
:10389000A06A08B9012000E0002038B941F23512D1
:1038A000AFF6C461AFF6AC6000F08CFC8249E06A10
:1038B0000968C96A884207D94FF080507F4908607B
:1038C000BFF34F8FBFF36F8FFDF72CFF5046BDE85E
:1038D000F0872DE9F84F07460E4690469946DDF8E9
:1038E00028B0012000903FB941F26812AFF6107184
:1038F000AFF6F86000F066FCFDF744FF3C4600BF01
:103900005021EFF3118081F31188BFF34F8FBFF384
:103910006F8F00BF0546B9F1000F02D0E06CC9F807
:10392000000094F850A0022084F85000B8F1050F70
:1039300017D2DFE808F01503070B0D00E06C3043E9
:10394000E0640EE0E06C401CE0640AE0E66408E03D
:10395000BAF1020F01D0E66401E00020009000E01F
:1039600000BF00BFBAF1010F3BD1A06A08B9012026
:1039700000E0002038B941F2AF12AFF69C71AFF60B
:10398000847000F01FFC50480068A8B9201DFDF7A6
:1039900085FF94F82C1001208840494909680843A4
:1039A00047490860E16A01EB8101464A02EB810068
:1039B000211DFDF74DFF04E004F118014348FDF718
:1039C00047FF3D49E06A0968C96A884209D9BBF1E5
:1039D000000F03D00120CBF8000002E001203C4999
:1039E000086000BF85F3118800BF0098BDE8F88F1C
:1039F0002DE9F04105460F4635B941F2E31235494C
:103A000001F11C0000F0DEFBFDF7BCFE2C4600BF00
:103A10005021EFF3118081F31188BFF34F8FBFF373
:103A20006F8F00BF064694F85080022084F8500043
:103A3000E06C401CE064B8F1010F37D1A06A08B90E
:103A4000012000E0002030B941F20922214901F1B2
:103A50001C0000F0B7FB1C480068A8B9201DFDF74A
:103A60001DFF94F82C10012088401549096808436F
:103A700013490860E16A01EB8101124A02EB8100FF
:103A8000211DFDF7E5FE04E004F118010F48FDF7E4
:103A9000DFFE0949E06A0968C96A884206D917B198
:103AA0000120386002E001200949086000BF86F368
:103AB000118800BFBDE8F0815400002004ED00E053
:103AC0006C000020F89000208C000020A0930020C3
:103AD00078000020E029000870B5054615B90A48AD
:103AE000006800E028460646FDF7F9FD96F850000C
:103AF000022804D1002086F85000012400E00024B0
:103B0000FDF710FE204670BD540000202DE9F04165
:103B100004460D4616461F464FF0000865602461B6
:103B2000B5420CD8F01BA169884202D34FF00108BE
:103B300011E0211DF7480068FDF796FE0BE0BE423C
:103B400004D2BD4202D34FF0010804E0211DF24827
:103B50000068FDF789FE4046BDE8F0812DE9FF478A
:103B600004460D4616461F46DDF830804FF000092A
:103B70002CB94FF4D372E9A1EFA000F023FBF24877
:103B8000006810B3009501960294062D15DAFFF730
:103B9000CAFC022808D1002342466946EA48006868
:103BA000FDF7E4FF814610E000231A466946E64827
:103BB0000068FDF7DBFF814607E000233A466946CF
:103BC000E1480068FEF740FA8146484604B0BDE887
:103BD000F0872DE9F8432DE0CF480068C0680568FC
:103BE000CD480068C068C468201DFDF757FE204618
:103BF000616A8847E06901281CD1A0694619AE4274
:103C000007D966602461211DC3480068FDF72CFEBA
:103C100010E0002003462A46014600902046FFF7A8
:103C20009DFF07462FB940F29232BCA1C2A000F01E
:103C3000C9FA00BFB8480068006808B9012000E070
:103C400000200028C8D0B448D0F80080B1480068EF
:103C5000B1490860AF48C0F80080BDE8F88370B58E
:103C60000446FFF7E0FA0546B8480068854204D2EA
:103C7000FFF7AFFF0120206001E000202060B34883
:103C80000560284670BDF0B587B070E00398002845
:103C90000CDA04AE2EB940F2E722A0A1A6A000F0F3
:103CA00091FAD6E90020B168904700BF0398002838
:103CB0005DDB059C606908B9012000E0002010B9B7
:103CC000201DFDF7EBFD02A8FFF7C9FF054603988D
:103CD0000A284AD2DFE800F00905072C2E4506081D
:103CE0002D2F00BF00BF00BF00BF0498A26981183C
:103CF00003462A462046FFF709FFC0B12046616A05
:103D00008847E069012812D1002000900498A16939
:103D10004218002319462046FFF720FF07462FB917
:103D200040F221327DA184A000F04CFA00BF1DE0DA
:103D300000BF1BE000BF0498A061A06908B101208A
:103D400000E0002028B94FF44E7274A17AA000F070
:103D500039FAA06941192B462A462046FFF7D6FEBC
:103D600004E02046FDF7C4FB00E000BF00BF0023D5
:103D70001A4603A974480068FEF742F8002885D166
:103D800007B0F0BDF8B505460F4663480068C06847
:103D9000C468201DFDF782FDE069012818D1A069E3
:103DA00041192B463A462046FFF7B0FE80B100206D
:103DB00003462A46014600902046FFF7CFFE0646FE
:103DC0002EB94FF4027255A15BA000F0FBF900BFC1
:103DD0002046616A8847F8BDF8B505460C46FEF7EF
:103DE000CEFE6846FFF73BFF0646009820BB44B96D
:103DF000B54206D8FEF718FE31462846FFF7C2FF47
:103E00001CE03CB143480068006808B9012000E0AC
:103E100000200446A91B22464B480068FEF75CFBC5
:103E2000FEF702FE50B94FF0805049490860BFF3D9
:103E30004F8FBFF36F8F01E0FEF7F6FDF8BD01462F
:103E4000354A126812680AB9012200E000220A60AD
:103E50000A6822B9304A1268D268106800E000206F
:103E6000704708B500BF6846FFF7E9FF04462046E3
:103E70000099FFF7B1FFFFF706FFF4E710B5FDF774
:103E80002EFC31480068D0B93248FDF7D1FC3248E9
:103E9000FDF7CEFC2F48204908602F481D490860D7
:103EA000002210210A20FDF766FD27490860084618
:103EB000006820B129A124480068FEF7E7FAFDF761
:103EC00031FC10BD1CB50024FFF7D8FF1E48006868
:103ED00058B124481F2100234FF48072CDE900100F
:103EE00021A12348FEF72AFC04462CB940F23312E4
:103EF0000AA111A000F066F920461CBD2DE9F0478B
:103F000006460D4617469846DDE908940DB1012096
:103F100031E02FE094000020900000202E2E5C2E37
:103F20002E5C4672656552544F535C7372635C74C9
:103F3000696D6572732E63004572726F723A2573F4
:103F40002C25640D0A00000098000020A00000202D
:103F500004ED00E0DC930020F0930020546D7251DA
:103F6000000000009C000020546D72205376630016
:103F7000633E0008002038B94FF4C672AFF2640106
:103F8000AFF24C0000F01EF95CB1FFF777FF26603E
:103F9000A561E761C4F82080C4F82490201DFDF7D6
:103FA00054FCBDE8F0872DE9FC4705460E46174650
:103FB0009846DDF828902820FDF717FA04463CB112
:103FC00043463A4631462846CDE90094FFF796FF2E
:103FD0002046BDE8FC8710B55B48006808B10120A9
:103FE00000E0002038B94FF4E872AFF2D001AFF230
:103FF000B80000F0E7F85448006810BD70B50446FA
:1040000025463CB940F2D912AFF2F001AFF2D80028
:1040100000F0D8F8A86970BD70B5044625463CB9D3
:1040200040F2E312AFF20C11AFF2F40000F0CAF864
:104030006E68304670BD70B5044625463CB940F206
:10404000ED12AFF22811AFF2101000F0BBF82868A3
:1040500070BD70B5044626463CB940F2DA32AFF284
:104060004411AFF22C1000F0ADF8FDF738FB706989
:1040700008B9012000E0002080F00105FDF752FBA7
:10408000284670BD70B5044626463CB940F2EF3272
:10409000AFF27811AFF2601000F094F8FDF71FFB5B
:1040A000356AFDF73FFB284670BD70B504460D46E6
:1040B00026463CB940F2FF32AFF2A011AFF28810B1
:1040C00000F080F8FDF70BFB3562FDF72BFB70BDB0
:1040D0002DE9FF4104460D4616461F466FF00100CC
:1040E000009001940295039600233A4669461748CA
:1040F0000068FDF7A9FF8046404604B0BDE8F081A6
:104100002DE9FF4104460D4616461F460F4800683C
:1041100038B940F22B42AFF2FC11AFF2E41000F0DC
:1041200051F84FF0FF300090019402950396002360
:104130003A46694605480068FDF718FD8046404646
:1041400004B0BDE8F08100009C0000209800002031
:1041500040EA01039B0703D009E008C9121F08C009
:10416000042AFAD203E011F8013B00F8013B521E89
:10417000F9D2704730B50B460146002020220124B9
:1041800009E021FA02F59D4205D303FA02F5491B25
:1041900004FA02F52844151EA2F10102F1DC30BD3B
:1041A000064C074D06E0E06840F0010394E8070084
:1041B00098471034AC42F6D3FBF7BEFFBC4300086F
:1041C000DC4300080FB4054B10B503A9044A02985C
:1041D00000F018F810BC5DF814FB00009F120008F6
:1041E000A400002002E008C8121F08C1002AFAD16A
:1041F00070477047002001E001C1121F002AFBD167
:10420000704700002DE9FF4F8BB09A460F460546D8
:10421000002606E025280BD052460D9990476D1CCC
:10422000761C28780028F5D10FB03046BDE8F08F15
:104230000024A0460122604900E0044315F8013F34
:10424000203B02FA03F00842F7D128782E2817D134
:1042500015F8010F44F004042A280ED06FF02F0245
:104260002878A0F1300109290AD808EB880102EB6F
:10427000410100EB01086D1CF2E757F8048B6D1C3F
:10428000287869283ED006DC0028CDD063280BD0E2
:10429000642804D136E0732810D075284BD05246DC
:1042A0000D999047761C85E017F8040B8DF80000F7
:1042B00000208DF80100E946012003E057F8049B37
:1042C0004FF0FF3061074FF0000401D40AE0641C96
:1042D00044450DDA8442FADB19F804100029F6D1BE
:1042E00006E0641C8442FCDB19F804100029F8D1B4
:1042F000264404E019F8010B52460D999047641EBC
:10430000F8D257E001CF4FF00A0B002802DA404202
:104310002D2102E0210504D52B218DF82410012147
:1043200003E0E10705D02021F7E70DF1200908910E
:104330000CE00021F9E701CF4FF00A0BF9E75946ED
:10434000FFF718FF01F1300209F8012D0028F6D11E
:10435000ADEB090000F1200B600701D44FF001081C
:10436000D84502DDA8EB0B0000E0002080460024C9
:1043700006E009A85246005D0D999047641C761C22
:1043800008988442F5DB04E0302052460D999047AE
:10439000761CB8F10001A8F10108F5DC05E019F878
:1043A000010B52460D999047761CBBF10001ABF111
:1043B000010BF4DC6D1C34E709280100DC43000824
:1043C00000000020A8000000E44100088444000828
:1043D000A800002060970000F441000800A24A04F1
:1043E00000000000000000000102030406070809A5
:1043F000000000000102030401020304060708098B
:104400000204060800000000000000000000000098
:10441000000000000000000000000000000000009C
:1044200000000000AAAAAAAA0000000000000000E4
:10443000000000000000000000000000000000007C
:10444000000000000000000000000000000000006C
:10445000000000000000000000000000000000005C
:10446000000000000000000000000000000000004C
:10447000000000000000000000000000000000003C
:044480000000000038
:0400000508000131BD
:00000001FF
